S01E000050504D5F417474696E7938355F446967697374756D702E73726563BF
S11300000EC028C027C0E4C025C024C023C022C01D
S113001021C020C02DC01EC01DC01CC01BC0112487
S11300201FBECFE5D2E0DEBFCDBF10E0A0E6B0E05A
S1130030EEE5F2E002C005900D92A436B107D9F7BF
S113004020E0A4E6B0E001C01D92AB36B207E1F7B0
S1130050FED003C1D5CF81E087BB88BB089580B7AC
S1130060816080BF84E18EBD89B7806489BF0895B3
S11300701F920F920FB60F9211242F933F934F9319
S11300805F936F937F938F939F93AF93BF93EF93FC
S1130090FF938091690090916A004F9750F480918A
S11300A0690090916A00019690936A0080936900B8
S11300B075C010926A001092690013BE80916600A8
S11300C0811128C0E0916600F0E0EE0FFF1FE05AB6
S11300D0FF4F80819181929582958F7089279F70BF
S11300E089274F9790936800809367002091670059
S11300F0309168008091640090916500820F931F95
S11301009093650080936400809166008F5F809374
S1130110660042C080916600813041F5E09166003E
S1130120F0E0EE0FFF1FE05AFF4F8081918192951E
S113013082958F7089279F7089274F9790936800C5
S1130140809367002091670030916800809164007B
S113015090916500820F931F9093650080936400D3
S1130160809166008F5F8093660016C08091660060
S1130170823091F4209164003091650083EC94E026
S1130180821B930B90936800809367001092650024
S1130190109264001092660018BA61DFFF91EF912B
S11301A0BF91AF919F918F917F916F915F914F918B
S11301B03F912F910F900FBE0F901F90189583B70A
S11301C0816083BF84E189BD89B7806189BF089557
S11301D01F920F920FB60F9211242F933F934F93B8
S11301E05F936F937F938F939F93AF93BF93EF939B
S11301F0FF932091690030916A008091670090918B
S113020068002817390750F48091690090916A00BA
S1130210019690936A008093690008C010926A0066
S11302201092690010BE81E088BBC9DFFF91EF9195
S1130230BF91AF919F918F917F916F915F914F91FA
S11302403F912F910F900FBE0F901F9018957894A7
S111025002DFB5DF81E088BBFFCFF894FFCF5B
S107025EE803D007D6
S9030000FC
